{
  "contractName": "Contacts",
  "abi": [
    {
      "inputs": [],
      "payable": false,
      "stateMutability": "nonpayable",
      "type": "constructor"
    },
    {
      "constant": true,
      "inputs": [],
      "name": "getCount",
      "outputs": [
        {
          "internalType": "uint256",
          "name": "",
          "type": "uint256"
        }
      ],
      "payable": false,
      "stateMutability": "view",
      "type": "function"
    },
    {
      "constant": false,
      "inputs": [
        {
          "internalType": "string",
          "name": "_name",
          "type": "string"
        },
        {
          "internalType": "string",
          "name": "_phone",
          "type": "string"
        }
      ],
      "name": "addContact",
      "outputs": [
        {
          "internalType": "uint256",
          "name": "",
          "type": "uint256"
        }
      ],
      "payable": false,
      "stateMutability": "nonpayable",
      "type": "function"
    },
    {
      "constant": true,
      "inputs": [
        {
          "internalType": "uint256",
          "name": "index",
          "type": "uint256"
        }
      ],
      "name": "getContact",
      "outputs": [
        {
          "internalType": "string",
          "name": "",
          "type": "string"
        },
        {
          "internalType": "string",
          "name": "",
          "type": "string"
        }
      ],
      "payable": false,
      "stateMutability": "view",
      "type": "function"
    }
  ],
  "bytecode": "0x608060405234801561001057600080fd5b50610753806100206000396000f3fe608060405234801561001057600080fd5b50600436106100415760003560e01c80632b6258b314610046578063a87d942c14610128578063e6505e1e14610146575b600080fd5b6101126004803603604081101561005c57600080fd5b810190808035906020019064010000000081111561007957600080fd5b82018360208201111561008b57600080fd5b803590602001918460018302840111640100000000831117156100ad57600080fd5b9091929391929390803590602001906401000000008111156100ce57600080fd5b8201836020820111156100e057600080fd5b8035906020019184600183028401116401000000008311171561010257600080fd5b9091929391929390505050610259565b6040518082815260200191505060405180910390f35b610130610437565b6040518082815260200191505060405180910390f35b6101726004803603602081101561015c57600080fd5b8101908080359060200190929190505050610482565b604051808060200180602001838103835285818151815260200191508051906020019080838360005b838110156101b657808201518184015260208101905061019b565b50505050905090810190601f1680156101e35780820380516001836020036101000a031916815260200191505b50838103825284818151815260200191508051906020019080838360005b8381101561021c578082015181840152602081019050610201565b50505050905090810190601f1680156102495780820380516001836020036101000a031916815260200191505b5094505050505060405180910390f35b60008033905060008060008373ffffffffffffffffffffffffffffffffffffffff1673ffffffffffffffffffffffffffffffffffffffff168152602001908152602001600020549050604051806060016040528082815260200188888080601f016020809104026020016040519081016040528093929190818152602001838380828437600081840152601f19601f82011690508083019250505050505050815260200186868080601f016020809104026020016040519081016040528093929190818152602001838380828437600081840152601f19601f82011690508083019250505050505050815250600160008473ffffffffffffffffffffffffffffffffffffffff1673ffffffffffffffffffffffffffffffffffffffff16815260200190815260200160002060008381526020019081526020016000206000820151816000015560208201518160010190805190602001906103bb929190610658565b5060408201518160020190805190602001906103d8929190610658565b509050506000808373ffffffffffffffffffffffffffffffffffffffff1673ffffffffffffffffffffffffffffffffffffffff168152602001908152602001600020600081548092919060010191905055508092505050949350505050565b6000803390506000808273ffffffffffffffffffffffffffffffffffffffff1673ffffffffffffffffffffffffffffffffffffffff1681526020019081526020016000205491505090565b60608060003390506104926106d8565b600160008373ffffffffffffffffffffffffffffffffffffffff1673ffffffffffffffffffffffffffffffffffffffff168152602001908152602001600020600086815260200190815260200160002060405180606001604052908160008201548152602001600182018054600181600116156101000203166002900480601f0160208091040260200160405190810160405280929190818152602001828054600181600116156101000203166002900480156105905780601f1061056557610100808354040283529160200191610590565b820191906000526020600020905b81548152906001019060200180831161057357829003601f168201915b50505050508152602001600282018054600181600116156101000203166002900480601f0160208091040260200160405190810160405280929190818152602001828054600181600116156101000203166002900480156106325780601f1061060757610100808354040283529160200191610632565b820191906000526020600020905b81548152906001019060200180831161061557829003601f168201915b505050505081525050905080602001518160400151819150809050935093505050915091565b828054600181600116156101000203166002900490600052602060002090601f016020900481019282601f1061069957805160ff19168380011785556106c7565b828001600101855582156106c7579182015b828111156106c65782518255916020019190600101906106ab565b5b5090506106d491906106f9565b5090565b60405180606001604052806000815260200160608152602001606081525090565b61071b91905b808211156107175760008160009055506001016106ff565b5090565b9056fea265627a7a723158204be14ee805d87e434be2d5930a48132b5b521b6435b231ef725da84a706a222a64736f6c63430005100032",
  "source": "// SPDX-License-Identifier: MIT\npragma solidity >=0.4.22 <0.9.0;\n\ncontract Contacts {\n\n  struct Contact {\n    uint id;\n    string name;\n    string phone;\n  }\n  \n  constructor() public {\n    // createContact('Yannis', '123123123');\n  }\n  \n  mapping(address => uint) private contactsCount;\n  mapping(address => mapping (uint => Contact)) private contacts;\n\n  function getCount() external view returns(uint)  {\n    address from = msg.sender;\n    return contactsCount[from];\n  }\n  \n  function addContact(string calldata _name, string calldata _phone) external returns(uint) {\n    address from = msg.sender;\n    uint count = contactsCount[from];\n    contacts[from][count] = Contact(count, _name, _phone);\n    contactsCount[from]++;\n    return count;\n  }\n\n  function getContact(uint index) external view returns(string memory, string memory) {\n   address from = msg.sender;\n   Contact memory contact = contacts[from][index];\n   return (contact.name, contact.phone);\n }\n\n}",
  "sourcePath": "/Users/apprenant50/Dev/ContactDApp/Contract/contracts/Contacts.sol",
  "compiler": {
    "name": "solc",
    "version": "0.5.16+commit.9c3226ce.Emscripten.clang"
  },
  "schemaVersion": "3.4.7",
  "updatedAt": "2022-05-18T10:02:34.499Z",
  "networkType": "ethereum",
  "devdoc": {
    "methods": {}
  },
  "userdoc": {
    "methods": {}
  }
}